{
  "address": "0xe7f1725E7734CE288F8367e1Bb143E90bb3F0512",
  "abi": [
    {
      "inputs": [],
      "stateMutability": "nonpayable",
      "type": "constructor"
    },
    {
      "inputs": [
        {
          "internalType": "address",
          "name": "",
          "type": "address"
        },
        {
          "internalType": "uint256",
          "name": "",
          "type": "uint256"
        }
      ],
      "name": "NFTMarketplace__AlreadyListed",
      "type": "error"
    },
    {
      "inputs": [],
      "name": "NFTMarketplace__NoProceeds",
      "type": "error"
    },
    {
      "inputs": [],
      "name": "NFTMarketplace__NotAllowed",
      "type": "error"
    },
    {
      "inputs": [],
      "name": "NFTMarketplace__NotApproved",
      "type": "error"
    },
    {
      "inputs": [
        {
          "internalType": "address",
          "name": "",
          "type": "address"
        },
        {
          "internalType": "uint256",
          "name": "",
          "type": "uint256"
        }
      ],
      "name": "NFTMarketplace__NotListed",
      "type": "error"
    },
    {
      "inputs": [],
      "name": "NFTMarketplace__NotOwner",
      "type": "error"
    },
    {
      "inputs": [],
      "name": "NFTMarketplace__PriceMustBePositive",
      "type": "error"
    },
    {
      "inputs": [
        {
          "internalType": "address",
          "name": "",
          "type": "address"
        },
        {
          "internalType": "uint256",
          "name": "",
          "type": "uint256"
        },
        {
          "internalType": "uint256",
          "name": "",
          "type": "uint256"
        }
      ],
      "name": "NFTMarketplace__PriceNotMet",
      "type": "error"
    },
    {
      "anonymous": false,
      "inputs": [
        {
          "indexed": true,
          "internalType": "address",
          "name": "buyer",
          "type": "address"
        },
        {
          "indexed": true,
          "internalType": "address",
          "name": "NFTAddress",
          "type": "address"
        },
        {
          "indexed": true,
          "internalType": "uint256",
          "name": "tokenId",
          "type": "uint256"
        },
        {
          "indexed": false,
          "internalType": "uint256",
          "name": "price",
          "type": "uint256"
        }
      ],
      "name": "ItemBought",
      "type": "event"
    },
    {
      "anonymous": false,
      "inputs": [
        {
          "indexed": true,
          "internalType": "address",
          "name": "seller",
          "type": "address"
        },
        {
          "indexed": true,
          "internalType": "address",
          "name": "NFTAddress",
          "type": "address"
        },
        {
          "indexed": true,
          "internalType": "uint256",
          "name": "tokenId",
          "type": "uint256"
        }
      ],
      "name": "ItemCanceled",
      "type": "event"
    },
    {
      "anonymous": false,
      "inputs": [
        {
          "indexed": true,
          "internalType": "address",
          "name": "sender",
          "type": "address"
        },
        {
          "indexed": true,
          "internalType": "address",
          "name": "nftAddress",
          "type": "address"
        },
        {
          "indexed": true,
          "internalType": "uint256",
          "name": "tokenId",
          "type": "uint256"
        },
        {
          "indexed": false,
          "internalType": "uint256",
          "name": "price",
          "type": "uint256"
        }
      ],
      "name": "ItemListed",
      "type": "event"
    },
    {
      "anonymous": false,
      "inputs": [
        {
          "indexed": true,
          "internalType": "address",
          "name": "seller",
          "type": "address"
        },
        {
          "indexed": true,
          "internalType": "address",
          "name": "NFTAddress",
          "type": "address"
        },
        {
          "indexed": true,
          "internalType": "uint256",
          "name": "tokenId",
          "type": "uint256"
        },
        {
          "indexed": false,
          "internalType": "uint256",
          "name": "newPrice",
          "type": "uint256"
        }
      ],
      "name": "ItemUpdated",
      "type": "event"
    },
    {
      "inputs": [
        {
          "internalType": "address",
          "name": "NFTAddress",
          "type": "address"
        },
        {
          "internalType": "uint256",
          "name": "tokenId",
          "type": "uint256"
        }
      ],
      "name": "buyItem",
      "outputs": [],
      "stateMutability": "payable",
      "type": "function"
    },
    {
      "inputs": [
        {
          "internalType": "address",
          "name": "NFTAddress",
          "type": "address"
        },
        {
          "internalType": "uint256",
          "name": "tokenId",
          "type": "uint256"
        }
      ],
      "name": "cancelListing",
      "outputs": [],
      "stateMutability": "nonpayable",
      "type": "function"
    },
    {
      "inputs": [
        {
          "internalType": "address",
          "name": "seller",
          "type": "address"
        }
      ],
      "name": "getAnyProcceeds",
      "outputs": [
        {
          "internalType": "uint256",
          "name": "",
          "type": "uint256"
        }
      ],
      "stateMutability": "view",
      "type": "function"
    },
    {
      "inputs": [
        {
          "internalType": "address",
          "name": "NFTAddress",
          "type": "address"
        },
        {
          "internalType": "uint256",
          "name": "tokenId",
          "type": "uint256"
        }
      ],
      "name": "getListing",
      "outputs": [
        {
          "components": [
            {
              "internalType": "uint256",
              "name": "price",
              "type": "uint256"
            },
            {
              "internalType": "address",
              "name": "seller",
              "type": "address"
            }
          ],
          "internalType": "struct NFTMarketplace.Listing",
          "name": "listing",
          "type": "tuple"
        }
      ],
      "stateMutability": "view",
      "type": "function"
    },
    {
      "inputs": [],
      "name": "getProcceeds",
      "outputs": [
        {
          "internalType": "uint256",
          "name": "",
          "type": "uint256"
        }
      ],
      "stateMutability": "view",
      "type": "function"
    },
    {
      "inputs": [
        {
          "internalType": "address",
          "name": "NFTAddress",
          "type": "address"
        },
        {
          "internalType": "uint256",
          "name": "tokenId",
          "type": "uint256"
        },
        {
          "internalType": "uint256",
          "name": "price",
          "type": "uint256"
        }
      ],
      "name": "listItem",
      "outputs": [],
      "stateMutability": "nonpayable",
      "type": "function"
    },
    {
      "inputs": [
        {
          "internalType": "address",
          "name": "NFTAddress",
          "type": "address"
        },
        {
          "internalType": "uint256",
          "name": "tokenId",
          "type": "uint256"
        },
        {
          "internalType": "uint256",
          "name": "newPrice",
          "type": "uint256"
        }
      ],
      "name": "updateListing",
      "outputs": [],
      "stateMutability": "nonpayable",
      "type": "function"
    },
    {
      "inputs": [],
      "name": "withdrawProceeds",
      "outputs": [],
      "stateMutability": "nonpayable",
      "type": "function"
    }
  ],
  "transactionHash": "0x976a86169786313f8da1d80c3b95ba6f11ff8cda82a8d41a1a26295484f29387",
  "args": [],
  "numDeployments": 1,
  "solcInputHash": "e40f230c20cb67e4bde15e103678d53f",
  "bytecode": "0x60a060405234801561001057600080fd5b503373ffffffffffffffffffffffffffffffffffffffff1660808173ffffffffffffffffffffffffffffffffffffffff1660601b8152505060805160601c61174a610066600039600061021f015261174a6000f3fe60806040526004361061007b5760003560e01c80639038e6931161004e5780639038e6931461014e5780639f37092a14610165578063b2ddee0614610181578063f772adf1146101aa5761007b565b80633f66a8741461008057806368ae789d146100ab57806388700d1c146100e857806389bfd38f14610125575b600080fd5b34801561008c57600080fd5b506100956101d3565b6040516100a29190611312565b60405180910390f35b3480156100b757600080fd5b506100d260048036038101906100cd9190611390565b61021a565b6040516100df9190611312565b60405180910390f35b3480156100f457600080fd5b5061010f600480360381019061010a91906113e9565b6102ea565b60405161011c9190611476565b60405180910390f35b34801561013157600080fd5b5061014c60048036038101906101479190611491565b6103b4565b005b34801561015a57600080fd5b5061016361082a565b005b61017f600480360381019061017a91906113e9565b61099d565b005b34801561018d57600080fd5b506101a860048036038101906101a391906113e9565b610d81565b005b3480156101b657600080fd5b506101d160048036038101906101cc9190611491565b610ffa565b005b6000600160003373ffffffffffffffffffffffffffffffffffffffff1673ffffffffffffffffffffffffffffffffffffffff16815260200190815260200160002054905090565b6000337f000000000000000000000000000000000000000000000000000000000000000073ffffffffffffffffffffffffffffffffffffffff168173ffffffffffffffffffffffffffffffffffffffff16146102a2576040517ff30e356c00000000000000000000000000000000000000000000000000000000815260040160405180910390fd5b600160008473ffffffffffffffffffffffffffffffffffffffff1673ffffffffffffffffffffffffffffffffffffffff16815260200190815260200160002054915050919050565b6102f26112c9565b6000808473ffffffffffffffffffffffffffffffffffffffff1673ffffffffffffffffffffffffffffffffffffffff1681526020019081526020016000206000838152602001908152602001600020604051806040016040529081600082015481526020016001820160009054906101000a900473ffffffffffffffffffffffffffffffffffffffff1673ffffffffffffffffffffffffffffffffffffffff1673ffffffffffffffffffffffffffffffffffffffff1681525050905092915050565b82823360008060008573ffffffffffffffffffffffffffffffffffffffff1673ffffffffffffffffffffffffffffffffffffffff1681526020019081526020016000206000848152602001908152602001600020604051806040016040529081600082015481526020016001820160009054906101000a900473ffffffffffffffffffffffffffffffffffffffff1673ffffffffffffffffffffffffffffffffffffffff1673ffffffffffffffffffffffffffffffffffffffff168152505090506000816000015111156104c15783836040517fe3775ccb0000000000000000000000000000000000000000000000000000000081526004016104b89291906114f3565b60405180910390fd5b868633600083905060008173ffffffffffffffffffffffffffffffffffffffff16636352211e856040518263ffffffff1660e01b81526004016105049190611312565b60206040518083038186803b15801561051c57600080fd5b505afa158015610530573d6000803e3d6000fd5b505050506040513d601f19601f820116820180604052508101906105549190611531565b90508073ffffffffffffffffffffffffffffffffffffffff168373ffffffffffffffffffffffffffffffffffffffff16146105bb576040517f98ca622600000000000000000000000000000000000000000000000000000000815260040160405180910390fd5b60008a116105f5576040517f189c255b00000000000000000000000000000000000000000000000000000000815260040160405180910390fd5b60008c90503073ffffffffffffffffffffffffffffffffffffffff168173ffffffffffffffffffffffffffffffffffffffff1663081812fc8e6040518263ffffffff1660e01b815260040161064a9190611312565b60206040518083038186803b15801561066257600080fd5b505afa158015610676573d6000803e3d6000fd5b505050506040513d601f19601f8201168201806040525081019061069a9190611531565b73ffffffffffffffffffffffffffffffffffffffff16146106e7576040517f61e31ba100000000000000000000000000000000000000000000000000000000815260040160405180910390fd5b60405180604001604052808c81526020013373ffffffffffffffffffffffffffffffffffffffff168152506000808f73ffffffffffffffffffffffffffffffffffffffff1673ffffffffffffffffffffffffffffffffffffffff16815260200190815260200160002060008e81526020019081526020016000206000820151816000015560208201518160010160006101000a81548173ffffffffffffffffffffffffffffffffffffffff021916908373ffffffffffffffffffffffffffffffffffffffff1602179055509050508b8d73ffffffffffffffffffffffffffffffffffffffff163373ffffffffffffffffffffffffffffffffffffffff167fd547e933094f12a9159076970143ebe73234e64480317844b0dcb36117116de48e6040516108139190611312565b60405180910390a450505050505050505050505050565b6000600160003373ffffffffffffffffffffffffffffffffffffffff1673ffffffffffffffffffffffffffffffffffffffff168152602001908152602001600020549050600081116108a8576040517faf2d092000000000000000000000000000000000000000000000000000000000815260040160405180910390fd5b6000600160003373ffffffffffffffffffffffffffffffffffffffff1673ffffffffffffffffffffffffffffffffffffffff1681526020019081526020016000208190555060003373ffffffffffffffffffffffffffffffffffffffff16826040516109139061158f565b60006040518083038185875af1925050503d8060008114610950576040519150601f19603f3d011682016040523d82523d6000602084013e610955565b606091505b5050905080610999576040517f08c379a000000000000000000000000000000000000000000000000000000000815260040161099090611601565b60405180910390fd5b5050565b818160008060008473ffffffffffffffffffffffffffffffffffffffff1673ffffffffffffffffffffffffffffffffffffffff1681526020019081526020016000206000838152602001908152602001600020604051806040016040529081600082015481526020016001820160009054906101000a900473ffffffffffffffffffffffffffffffffffffffff1673ffffffffffffffffffffffffffffffffffffffff1673ffffffffffffffffffffffffffffffffffffffff168152505090506000816000015111610aa85782826040517f8a2f0a02000000000000000000000000000000000000000000000000000000008152600401610a9f9291906114f3565b60405180910390fd5b60008060008773ffffffffffffffffffffffffffffffffffffffff1673ffffffffffffffffffffffffffffffffffffffff1681526020019081526020016000206000868152602001908152602001600020604051806040016040529081600082015481526020016001820160009054906101000a900473ffffffffffffffffffffffffffffffffffffffff1673ffffffffffffffffffffffffffffffffffffffff1673ffffffffffffffffffffffffffffffffffffffff168152505090508060000151341015610bb757858582600001516040517f189382d1000000000000000000000000000000000000000000000000000000008152600401610bae93929190611621565b60405180910390fd5b806000015160016000836020015173ffffffffffffffffffffffffffffffffffffffff1673ffffffffffffffffffffffffffffffffffffffff1681526020019081526020016000206000828254610c0e9190611687565b925050819055506000808773ffffffffffffffffffffffffffffffffffffffff1673ffffffffffffffffffffffffffffffffffffffff16815260200190815260200160002060008681526020019081526020016000206000808201600090556001820160006101000a81549073ffffffffffffffffffffffffffffffffffffffff0219169055505060008690508073ffffffffffffffffffffffffffffffffffffffff166342842e0e836020015133896040518463ffffffff1660e01b8152600401610cdc939291906116dd565b600060405180830381600087803b158015610cf657600080fd5b505af1158015610d0a573d6000803e3d6000fd5b50505050858773ffffffffffffffffffffffffffffffffffffffff163373ffffffffffffffffffffffffffffffffffffffff167f263223b1dd81e51054a4e6f791d45a4a1ddb4aadcd93a2dfd892615c3fdac1878560000151604051610d709190611312565b60405180910390a450505050505050565b818133600083905060008173ffffffffffffffffffffffffffffffffffffffff16636352211e856040518263ffffffff1660e01b8152600401610dc49190611312565b60206040518083038186803b158015610ddc57600080fd5b505afa158015610df0573d6000803e3d6000fd5b505050506040513d601f19601f82011682018060405250810190610e149190611531565b90508073ffffffffffffffffffffffffffffffffffffffff168373ffffffffffffffffffffffffffffffffffffffff1614610e7b576040517f98ca622600000000000000000000000000000000000000000000000000000000815260040160405180910390fd5b60008060008973ffffffffffffffffffffffffffffffffffffffff1673ffffffffffffffffffffffffffffffffffffffff1681526020019081526020016000206000888152602001908152602001600020600001541415610f155786866040517f8a2f0a02000000000000000000000000000000000000000000000000000000008152600401610f0c9291906114f3565b60405180910390fd5b6000808873ffffffffffffffffffffffffffffffffffffffff1673ffffffffffffffffffffffffffffffffffffffff16815260200190815260200160002060008781526020019081526020016000206000808201600090556001820160006101000a81549073ffffffffffffffffffffffffffffffffffffffff02191690555050858773ffffffffffffffffffffffffffffffffffffffff163373ffffffffffffffffffffffffffffffffffffffff167f9ba1a3cb55ce8d63d072a886f94d2a744f50cddf82128e897d0661f5ec62315860405160405180910390a450505050505050565b828260008060008473ffffffffffffffffffffffffffffffffffffffff1673ffffffffffffffffffffffffffffffffffffffff1681526020019081526020016000206000838152602001908152602001600020604051806040016040529081600082015481526020016001820160009054906101000a900473ffffffffffffffffffffffffffffffffffffffff1673ffffffffffffffffffffffffffffffffffffffff1673ffffffffffffffffffffffffffffffffffffffff1681525050905060008160000151116111055782826040517f8a2f0a020000000000000000000000000000000000000000000000000000000081526004016110fc9291906114f3565b60405180910390fd5b858533600083905060008173ffffffffffffffffffffffffffffffffffffffff16636352211e856040518263ffffffff1660e01b81526004016111489190611312565b60206040518083038186803b15801561116057600080fd5b505afa158015611174573d6000803e3d6000fd5b505050506040513d601f19601f820116820180604052508101906111989190611531565b90508073ffffffffffffffffffffffffffffffffffffffff168373ffffffffffffffffffffffffffffffffffffffff16146111ff576040517f98ca622600000000000000000000000000000000000000000000000000000000815260040160405180910390fd5b886000808d73ffffffffffffffffffffffffffffffffffffffff1673ffffffffffffffffffffffffffffffffffffffff16815260200190815260200160002060008c815260200190815260200160002060000181905550898b73ffffffffffffffffffffffffffffffffffffffff163373ffffffffffffffffffffffffffffffffffffffff167f3c33e65e8698294810b631d476d60b44425303828da0b1f8b635231bfda12be28c6040516112b49190611312565b60405180910390a45050505050505050505050565b604051806040016040528060008152602001600073ffffffffffffffffffffffffffffffffffffffff1681525090565b6000819050919050565b61130c816112f9565b82525050565b60006020820190506113276000830184611303565b92915050565b600080fd5b600073ffffffffffffffffffffffffffffffffffffffff82169050919050565b600061135d82611332565b9050919050565b61136d81611352565b811461137857600080fd5b50565b60008135905061138a81611364565b92915050565b6000602082840312156113a6576113a561132d565b5b60006113b48482850161137b565b91505092915050565b6113c6816112f9565b81146113d157600080fd5b50565b6000813590506113e3816113bd565b92915050565b60008060408385031215611400576113ff61132d565b5b600061140e8582860161137b565b925050602061141f858286016113d4565b9150509250929050565b611432816112f9565b82525050565b61144181611352565b82525050565b60408201600082015161145d6000850182611429565b5060208201516114706020850182611438565b50505050565b600060408201905061148b6000830184611447565b92915050565b6000806000606084860312156114aa576114a961132d565b5b60006114b88682870161137b565b93505060206114c9868287016113d4565b92505060406114da868287016113d4565b9150509250925092565b6114ed81611352565b82525050565b600060408201905061150860008301856114e4565b6115156020830184611303565b9392505050565b60008151905061152b81611364565b92915050565b6000602082840312156115475761154661132d565b5b60006115558482850161151c565b91505092915050565b600081905092915050565b50565b600061157960008361155e565b915061158482611569565b600082019050919050565b600061159a8261156c565b9150819050919050565b600082825260208201905092915050565b7f5472616e73666572206661696c65640000000000000000000000000000000000600082015250565b60006115eb600f836115a4565b91506115f6826115b5565b602082019050919050565b6000602082019050818103600083015261161a816115de565b9050919050565b600060608201905061163660008301866114e4565b6116436020830185611303565b6116506040830184611303565b949350505050565b7f4e487b7100000000000000000000000000000000000000000000000000000000600052601160045260246000fd5b6000611692826112f9565b915061169d836112f9565b9250827fffffffffffffffffffffffffffffffffffffffffffffffffffffffffffffffff038211156116d2576116d1611658565b5b828201905092915050565b60006060820190506116f260008301866114e4565b6116ff60208301856114e4565b61170c6040830184611303565b94935050505056fea264697066735822122003a938a5a0cc081540e23c7893ab9a404f8fcc27963204fd214a35e16359295064736f6c63430008080033",
  "devdoc": {
    "kind": "dev",
    "methods": {},
    "version": 1
  },
  "userdoc": {
    "kind": "user",
    "methods": {},
    "version": 1
  },
  "storageLayout": {
    "storage": [
      {
        "astId": 174,
        "contract": "contracts/NFTMarketplace.sol:NFTMarketplace",
        "label": "s_listings",
        "offset": 0,
        "slot": "0",
        "type": "t_mapping(t_address,t_mapping(t_uint256,t_struct(Listing)167_storage))"
      },
      {
        "astId": 178,
        "contract": "contracts/NFTMarketplace.sol:NFTMarketplace",
        "label": "s_proceeds",
        "offset": 0,
        "slot": "1",
        "type": "t_mapping(t_address,t_uint256)"
      }
    ],
    "types": {
      "t_address": {
        "encoding": "inplace",
        "label": "address",
        "numberOfBytes": "20"
      },
      "t_mapping(t_address,t_mapping(t_uint256,t_struct(Listing)167_storage))": {
        "encoding": "mapping",
        "key": "t_address",
        "label": "mapping(address => mapping(uint256 => struct NFTMarketplace.Listing))",
        "numberOfBytes": "32",
        "value": "t_mapping(t_uint256,t_struct(Listing)167_storage)"
      },
      "t_mapping(t_address,t_uint256)": {
        "encoding": "mapping",
        "key": "t_address",
        "label": "mapping(address => uint256)",
        "numberOfBytes": "32",
        "value": "t_uint256"
      },
      "t_mapping(t_uint256,t_struct(Listing)167_storage)": {
        "encoding": "mapping",
        "key": "t_uint256",
        "label": "mapping(uint256 => struct NFTMarketplace.Listing)",
        "numberOfBytes": "32",
        "value": "t_struct(Listing)167_storage"
      },
      "t_struct(Listing)167_storage": {
        "encoding": "inplace",
        "label": "struct NFTMarketplace.Listing",
        "members": [
          {
            "astId": 164,
            "contract": "contracts/NFTMarketplace.sol:NFTMarketplace",
            "label": "price",
            "offset": 0,
            "slot": "0",
            "type": "t_uint256"
          },
          {
            "astId": 166,
            "contract": "contracts/NFTMarketplace.sol:NFTMarketplace",
            "label": "seller",
            "offset": 0,
            "slot": "1",
            "type": "t_address"
          }
        ],
        "numberOfBytes": "64"
      },
      "t_uint256": {
        "encoding": "inplace",
        "label": "uint256",
        "numberOfBytes": "32"
      }
    }
  }
}